:020000040000fa
:080000000001040000000000f3
:020000040000fa
:04000800c80100002b
:020000040000fa
:04000c00c801000027
:020000040000fa
:04001000c801000023
:020000040000fa
:04001400c80100001f
:020000040000fa
:04001800c80100001b
:020000040000fa
:04001c00c801000017
:020000040000fa
:04002000c801000013
:020000040000fa
:04002400c80100000f
:020000040000fa
:04002800c80100000b
:020000040000fa
:04002c00c801000007
:020000040000fa
:04003000c801000003
:020000040000fa
:040034007031000027
:020000040000fa
:04003800c8010000fb
:020000040000fa
:04003c00c8010000f7
:020000040000fa
:04004000c8010000f3
:020000040000fa
:04004400c8010000ef
:020000040000fa
:04004800c8010000eb
:020000040000fa
:04004c00c8010000e7
:020000040000fa
:04005000c8010000e3
:020000040000fa
:04005400c8010000df
:020000040000fa
:04005800c8010000db
:020000040000fa
:04005c00c8010000d7
:020000040000fa
:04006000c8010000d3
:020000040000fa
:04006400c8010000cf
:020000040000fa
:04006800c8010000cb
:020000040000fa
:04006c00c8010000c7
:020000040000fa
:04007000c8010000c3
:020000040000fa
:04007400c8010000bf
:020000040000fa
:04007800c8010000bb
:020000040000fa
:04007c00c8010000b7
:020000040000fa
:04008000c8010000b3
:020000040000fa
:04008400c8010000af
:020000040000fa
:04008800c8010000ab
:020000040000fa
:04008c00c8010000a7
:020000040000fa
:04009000c8010000a3
:020000040000fa
:04009400c80100009f
:020000040000fa
:04009800c80100009b
:020000040000fa
:04009c00c801000097
:020000040000fa
:0400a000c801000093
:020000040000fa
:0400a400c80100008f
:020000040000fa
:0400a800c80100008b
:020000040000fa
:0400ac00c801000087
:020000040000fa
:0400b000c801000083
:020000040000fa
:0400b400c80100007f
:020000040000fa
:0400b800c80100007b
:020000040000fa
:0400bc00c801000077
:020000040000fa
:0400c000c801000073
:020000040000fa
:0400c400c80100006f
:020000040000fa
:0400c800c80100006b
:020000040000fa
:0400cc00c801000067
:020000040000fa
:0400d000c801000063
:020000040000fa
:0400d400c80100005f
:020000040000fa
:0400d800c80100005b
:020000040000fa
:04010800c80100002a
:020000040000fa
:04010c00c801000026
:020000040000fa
:04011000c801000022
:020000040000fa
:04011400c80100001e
:020000040000fa
:04011800c80100001a
:020000040000fa
:04011c00c801000016
:020000040000fa
:04012000c801000012
:020000040000fa
:04012400c80100000e
:020000040000fa
:04012800c80100000a
:020000040000fa
:04012c00c801000006
:020000040000fa
:04013000c801000002
:020000040000fa
:04013400c8010000fe
:020000040000fa
:04013800c8010000fa
:020000040000fa
:04013c00c8010000f6
:020000040000fa
:04014000c8010000f2
:020000040000fa
:04014400c8010000ee
:020000040000fa
:04014800c8010000ea
:020000040000fa
:04014c00c8010000e6
:020000040000fa
:04015000c8010000e2
:020000040000fa
:04015400c8010000de
:020000040000fa
:04015800c8010000da
:020000040000fa
:04015c00c8010000d6
:020000040000fa
:04016000c8010000d2
:020000040000fa
:04016400c8010000ce
:020000040000fa
:04016800c8010000ca
:020000040000fa
:04016c00c8010000c6
:020000040000fa
:04017000c8010000c2
:020000040000fa
:04017400c8010000be
:020000040000fa
:04017800c8010000ba
:020000040000fa
:04017c00c8010000b6
:020000040000fa
:04018000c8010000b2
:020000040000fa
:04018400c8010000ae
:020000040000fa
:04018800c8010000aa
:020000040000fa
:04018c00c8010000a6
:020000040000fa
:04019000c8010000a2
:020000040000fa
:04019400c80100009e
:020000040000fa
:04019800c80100009a
:020000040000fa
:04019c00c801000096
:020000040000fa
:0401a000c801000092
:020000040000fa
:0401a400c80100008e
:020000040000fa
:0401a800c80100008a
:020000040000fa
:0401ac00c801000086
:020000040000fa
:0401b000c801000082
:020000040000fa
:0401b400c80100007e
:020000040000fa
:0401b800c80100007a
:020000040000fa
:0401bc00c801000076
:020000040000fa
:0401c000c801000072
:020000040000fa
:0401c400c80100006e
:020000040000fa
:0401c800c80100006a
:020000040000fa
:0401cc00c801000066
:020000040000fa
:0401d000c801000062
:020000040000fa
:0401d400c80100005e
:020000040000fa
:0401d800c80100005a
:020000040000fa
:10020000aff120000eff20000e018800000000006a
:10021000000020000000e000020032000001200089
:1002200020028800140007005b0007000000e000c7
:1002300003003a0060302300010020000200370074
:100240000000200001002000810f7000010032003a
:1002500014000700000020000000e000020032004f
:100260000000020000000000dc2e02000000000080
:100270000040da000000fe004440a9000080220097
:100280000000e0000300320000002000a001880010
:100290004440a800000006008a1f78008b1f7800e9
:1002a0000000060091018800800478000000eb0047
:1002b0001a003700e284440032a0b4009905ba0065
:1002c000e284440032a0b4009906ba00e2844400fb
:1002d00032a0b4000006eb00476fde00fd07b2005d
:1002e000636ce10003003a00ebff07000000eb0045
:1002f0000a003700606ce10004003a00005deb008a
:100300008b05e900fdff3e00040037006168e10055
:10031000010032000086eb000b00070019c7ba008d
:100320001905ba000e04e00003003a000a00e000dc
:10033000e0ff3a0000000600fe07b2009e018800c0
:100340008a047800f5ff3700395dba008b05e900b3
:100350000c003200295dba008b05e900080032006c
:100360000c00e00003003a00e284440032a0b40034
:10037000f5ff370019ddba008b05e900faff3a00f6
:100380008904e800e184440032a0b40000000600c3
:100390000040da000000fe0000000500839f6800b6
:1003a0000100e00002003d0060001000e080180045
:1003b0000300e00002003d0060011100e08119002f
:1003c000050007004f00e00002003b006000100045
:1003d000e0801800000006006022b800060220003d
:1003e0000000d0008180d2000482d2008582d20039
:1003f0000000a0000202520083825a000300310074
:100400000202420083824a000000a1000603e900c4
:10041000f3ff3a0000000600889fbe007074800061
:100420000000e00001003200000001008074800044
:100430000000e0000100320000000100c0e82000e0
:100440001004e00022003a00b0788000c1788000fb
:1004500088002000d26026009301200035000700ac
:10046000f2352f00e3c623000000410081804900df
:100470000804e900f7ff3a0028e9200009082000f5
:1004800088844400d26026009301200029000700e0
:10049000f2352f00e3c623000000410081804900af
:1004a00000acbe00890f5400f6ff3a00b078880017
:1004b000c178880090788000a178800090748800ce
:1004c000a174880011c0b300c0e820000148780082
:1004d000d260260093012000b0788000c1788000af
:1004e00014000700f2352f00e3c62300000241008c
:1004f00081824900b4788800c578880020e920000e
:10050000100078007f0160004211dd0060e92000ea
:10051000020140001200be0090748800a17488009f
:100520000489be000100780000f0a1004f04be0065
:1005300000000600020ab900001bb9000200b80062
:0c05400081004200810043000000060022
:020000040000fa
:10054c0001000000010000000c0000001f00000072
:10055c003a00000054000000670000007a00000020
:10056c008d00000098000000a2000000b500000003
:10057c00c4000000ce000000e3000000ff000000fb
:10058c001b01000037010000540100006b0100004a
:10059c007e01000090010000a3010000b6010000e4
:1005ac00c5010000ce010000d1010000d101000006
:1005bc00c8010000c1010000c1010000c101000020
:1005cc00c1010000b9010000b1010000b10100003f
:1005dc00ad010000a30100009a0100009101000090
:1005ec00870100007e01000075010000650100001c
:1005fc0053010000400100002f0100002601000003
:10060c001801000005010000fa000000ef000000d6
:10061c00dd000000cd000000c4000000bb000000a5
:10062c00b1000000ba000000c1000000c1000000d1
:10063c00cc000000de000000f900000015010000f5
:10064c00310100005601000085010000b3010000db
:10065c00e201000011020000430200007b020000d6
:10066c00ae020000dd0200000303000029030000bd
:10067c004e0300007403000099030000b703000050
:10068c00d4030000fa0300001c040000380400002e
:10069c004e0400006004000073040000830400009a
:1006ac008d040000910400009104000091040000ee
:1006bc0091040000910400009104000091040000da
:1006cc009104000091040000a4040000b704000091
:1006dc00ca040000e2040000fe0400001a05000039
:1006ec00380500005e0500007f0500009b0500003a
:1006fc00c5050000f40500002306000055060000a7
:10070c008e060000c0060000ef0600001d0700006a
:10071c004c0700007b070000a0070000bc0700008e
:10072c00d8070000f1070000f1070000f1070000f6
:10073c00f1070000e4070000d1070000be0700002d
:10074c00a90700008d070000710700005407000086
:10075c00410700002e0700001b07000008070000df
:10076c00f6060000e3060000d0060000bd060000ff
:10077c00ab060000980600007f0600006306000030
:10078c00470600002b0600000f060000ee050000d7
:10079c00c8050000aa0500008f0500007c050000bc
:1007ac006a050000570500004405000031050000f3
:1007bc00280500001c05000009050000f6040000d7
:1007cc00e4040000d1040000bd040000a0040000fb
:1007dc0089040000760400005c0400004004000062
:1007ec002404000008040000ec030000cf03000008
:1007fc00b3030000970300007d0300006a030000b0
:10080c005303000037030000220300000f03000015
:10081c00fd020000e6020000ca020000ae02000069
:10082c00920200006d02000047020000220200004c
:10083c00fc010000d7010000b10100008a0100009a
:10084c005b0100002c010000fe000000d60000003f
:10085c00b0000000810000005200000023000000e6
:10086c00f4ff0000c5ff000097ff000068ff0000c8
:10087c0039ff00000aff0000dbfe0000b4fe0000a0
:10088c008efe000069fe000047fe00002afe0000fc
:10089c000efe0000f2fd0000dffd0000cffd0000a9
:1008ac00c5fd0000bcfd0000b3fd0000a9fd00006b
:1008bc009ffd00008cfd000079fd000066fd00002e
:1008cc004dfd000031fd000015fd0000f3fc0000a3
:1008dc00c4fc000095fc000066fc000037fc000026
:1008ec0008fc0000d9fb0000abfb00007cfb000007
:1008fc0045fb00000dfb0000d5fa00009dfa00003e
:10090c0065fa00002cfa0000f4f90000c5f90000ab
:10091c0098f9000073f9000052f9000036f9000054
:10092c001af90000fff80000ecf80000ddf80000f8
:10093c00d4f80000d1f80000d1f80000d1f8000084
:10094c00d7f80000e9f80000fcf800000ff90000ef
:10095c0021f9000036f9000052f9000065f9000099
:10096c006ff9000078f9000082f900008bf90000a3
:10097c0091f9000091f9000097f90000a0f900002e
:10098c00aaf90000b5f90000c8f90000d6f900007a
:10099c00dff90000f0f9000001fa000001fa000094
:1009ac0001fa000001fa0000fbf90000f1f9000067
:1009bc00e8f90000dcf90000c9f90000bcf90000fe
:1009cc00b2f90000a1f9000090f9000086f90000ce
:1009dc007df9000073f9000071f9000071f9000055
:1009ec0071f9000071f9000071f900007df9000047
:1009fc0090f90000a2f90000b7f90000d3f900004b
:100a0c00f4f900001afa000047fa000075fa000029
:100a1c009afa0000bffa0000e5fa000004fb00009f
:100a2c0020fb000046fb000068fb000085fb00007b
:100a3c00a6fb0000ccfb0000e1fb0000f2fb000079
:100a4c00fcfb0000fdfb0000f4fb0000e3fb0000de
:100a5c00d0fb0000b4fb00009bfb000088fb0000f7
:100a6c0076fb000063fb000048fb00002dfb000040
:100a7c001afb000008fb0000f5fa0000e2fa000087
:100a8c00d0fa0000c7fa0000c5fa0000cefa000048
:100a9c00d1fa0000d1fa0000d1fa0000d6fa000019
:100aac00e9fa0000fbfa00000efb000021fb00003d
:100abc0035fb000051fb00006dfb000089fb0000c2
:100acc009ffb0000b1fb0000c4fb0000d7fb000043
:100adc00eafb0000f7fb000000fc000012fc000029
:100aec0025fc000037fc00004afc00005dfc000007
:100afc0070fc000082fc000095fc0000a4fc0000cf
:100b0c00aefc0000bdfc0000d0fc0000dafc0000d4
:100b1c00e6fc0000f8fc00000bfd00001efd0000d0
:100b2c0031fd000043fd000056fd000069fd000092
:100b3c007cfd00008efd0000a1fd0000b4fd000056
:100b4c00c9fd0000e5fd000002fe00001efe0000d5
:100b5c0032fe000044fe000057fe00006afe00005a
:100b6c007dfe000096fe0000b4fe0000e2fe0000d8
:100b7c0011ff000040ff00006fff00009eff00000f
:100b8c00cdff0000faff00001f0000004500000030
:100b9c006a0000008000000093000000a600000026
:100bac00b5000000be000000ce000000e100000017
:100bbc00ea000000f600000009010000210100001d
:100bcc003d01000059010000740100008701000084
:100bdc009a010000ac010000b8010000c101000046
:100bec00c1010000c4010000ce010000dd010000c5
:100bfc00f0010000fa0100000502000018020000dc
:100c0c00210200002102000021020000210200004c
:100c1c00210200001d02000014020000040200006a
:100c2c00f2010000df010000cf010000c50100004f
:100c3c00bc010000b2010000a9010000a0010000ed
:100c4c00960100008d010000840100007a01000073
:100c5c00710100005e0100004b0100003801000032
:100c6c002b010000220100001901000011010000fd
:100c7c001101000011010000110100000a01000027
:100c8c0000010000f7000000ee000000e40000008e
:100c9c00d5000000c2000000a60000008800000083
:100cac00620000004200000026000000020000006c
:100cbc00dcff0000b7ff000095ff000079ff00008b
:100ccc005dff000041ff000025ff00000bff00004e
:100cdc00f9fe0000e6fe0000d3fe0000c9fe000095
:100cec00bffe0000b6fe0000adfe0000a3fe00003b
:100cfc00a1fe0000a1fe0000a1fe0000a4fe000069
:100d0c00aefe0000bdfe0000d0fe0000dafe0000ca
:100d1c00e6fe0000f8fe000006ff00000fff0000da
:100d2c0011ff000010ff000007ff0000f9fe00009b
:100d3c00e7fe0000dafe0000d1fe0000d1fe00004c
:100d4c00d1fe0000d1fe0000ccfe0000c2fe00006f
:100d5c00b9fe0000b1fe0000b1fe0000adfe0000c7
:100d6c00a3fe0000a1fe0000a1fe000097fe000003
:100d7c0091fe000091fe000097fe0000a0fe000016
:100d8c00aafe0000b3fe0000bdfe0000cbfe00007a
:100d9c00defe0000f8fe000015ff00003bff000027
:100dac0060ff000086ff0000a5ff0000c1ff0000ef
:100dbc00e6ff00000c0000003100000057000000ae
:100dcc007c000000a2000000c8000000f70000003a
:100ddc001e0100003a0100004f01000061010000fb
:100dec006b010000770100008a0100009d010000ea
:100dfc00b0010000ba010000bd010000aa01000012
:100e0c009c010000930100008a0100008101000098
:100e1c0081010000810100008101000074010000cb
:100e2c006201000058010000540100005d01000047
:100e3c006c0100007e01000099010000b40100006b
:100e4c00c7010000cd010000c4010000c101000079
:100e5c00c1010000cb010000d7010000ea01000035
:100e6c00f701000000020000010200000102000076
:100e7c00010200000102000001020000100200004b
:100e8c00230200003f0200005f0200008502000008
:100e9c009e020000b0020000a8020000a1020000a7
:100eac00a1020000ab020000be020000d102000053
:100ebc00e2020000ec020000e9020000d602000091
:100ecc00ca020000c1020000cb020000d4020000e4
:100edc00dd020000e7020000f0020000f902000051
:100eec00030300000c0300001103000011030000b9
:100efc0011030000120300001b030000210300007b
:100f0c002103000021030000210300003303000033
:100f1c004c0300007b030000a5030000cb03000082
:100f2c00e803000003040000160400003104000074
:100f3c0056040000750400009104000088040000b1
:100f4c007e040000750400006c04000062040000c4
:100f5c00690400007604000092040000b304000051
:100f6c00d8040000ef04000001050000f7040000a5
:100f7c00eb040000d8040000d7040000e0040000db
:100f8c00ea040000f3040000fd040000fc0400006f
:100f9c00f3040000da040000bf040000ac040000fd
:100fac009a040000870400007b0400007104000018
:100fbc005f0400004704000021040000fc03000053
:100fcc00d6030000c1030000b3030000bc03000003
:100fdc00bd030000b3030000950300006f03000085
:100fec003703000001030000d3020000aa02000036
:100ffc008402000070020000610200006102000027
:10100c00660200006f0200006a0200005e0200002f
:10101c004202000023020000fd010000e401000078
:10102c00d2010000a3010000700100002e0100009d
:10103c00e70000009c000000510000000a000000c6
:10104c00dbff0000b1ff00008bff000066ff00001b
:10105c0040ff000011ff0000e8fe0000ccfe000085
:10106c00b0fe000094fe000089fe000081fe00002e
:10107c0081fe000086fe00008ffe0000a0fe000036
:10108c00b3fe0000cffe0000f3fe000021ff0000c5
:10109c004aff000070ff000095ff0000bbff00003e
:1010ac00e0ff0000060000002b00000049000000db
:1010bc00620000006c000000710000007100000074
:1010cc007800000081000000810000008100000019
:1010dc00810000007600000063000000500000005a
:1010ec003c0000002000000004000000e7ff0000ae
:1010fc00daff0000d1ff0000d1ff0000d4ff000098
:10110c00deff0000e1ff0000e1ff0000eaff00004d
:10111c00f6ff000008000000250000004b00000056
:10112c0078000000a8000000e000000011010000a1
:10113c00360100005501000071010000970100000c
:10114c00c2010000fa010000320200006a02000035
:10115c0092020000b6020000d2020000e50200007c
:10116c00ef020000ea020000e0020000cd020000e5
:10117c00b40200008f020000630200003402000081
:10118c00f4010000b0010000650100001a0100002c
:10119c00cf0000008c0000004b000000130000008a
:1011ac00d7ff000095ff000053ff000012ff000066
:1011bc00e3fe0000b4fe000085fe000056fe0000b9
:1011cc0027fe000009fe0000ebfd0000c6fd00003c
:1011dc00a9fd000096fd00008afd000081fd0000c5
:1011ec0077fd00006efd000065fd000055fd000060
:1011fc0043fd000027fd000009fd0000e4fc000099
:10120c00befc000099fc00006cfc00003dfc0000e2
:10121c000efc0000dffb0000b0fb000081fb0000b7
:10122c0052fb000023fb0000f7fa0000d2fa00008a
:10123c00a7fa000078fa000051fa00002dfa00001d
:10124c0011fa0000f5f90000d8f90000c3f900000c
:10125c00b1f90000bbf90000c4f90000cdf90000a1
:10126c00d7f90000e0f9000003fa000027fa0000ab
:10127c0043fa000064fa000089fa0000a7fa0000a3
:10128c00c3fa0000d5fa0000effa000015fb0000cd
:10129c003afb000060fb00008efb0000bdfb000071
:1012ac00ecfb000016fc00003bfc000059fc0000ad
:1012bc0075fc000091fc0000a9fc0000bcfc0000c7
:1012cc00cffc0000e1fc0000ebfc0000f4fc000093
:1012dc00fdfc000007fd000010fd000022fd0000d9
:1012ec0035fd000047fd00005afd00006dfd0000bb
:1012fc0080fd000092fd0000a5fd0000b8fd00007f
:10130c00cbfd0000d7fd0000e1fd0000fcfd00005e
:10131c0018fe000034fe000050fe00006cfe0000c1
:10132c0081fe000094fe0000b1fe0000d1fe000022
:10133c00f6fe000022ff000051ff000077ff0000c6
:10134c0097ff0000a9ff0000bcff0000cfff0000ca
:10135c00e2ff0000f3ff0000fcff000005000000ae
:10136c000f0000000a00000000000000edff00006c
:10137c00dbff0000c8ff0000b5ff0000a2ff00006b
:10138c0090ff00007fff000076ff00006cff000064
:10139c0063ff000061ff000061ff000061ff0000bf
:1013ac0061ff000061ff000068ff000071ff00009a
:1013bc007aff000086ff000099ff0000acff0000e0
:1013cc00bfff0000e2ff0000070000002d0000003e
:1013dc005b00000093000000bd000000e300000073
:1013ec00080100002a010000470100005d01000017
:1013fc0070010000710100006f0100006601000027
:10140c005c010000530100003b0100001e010000c4
:10141c0002010000e6000000ca000000bb00000052
:10142c00b10000009f0000008c000000790000005b
:10143c006700000054000000410000002e00000076
:10144c001c00000009000000f6ff0000e3ff000094
:10145c00d1ff0000c7ff0000c1ff0000c1ff00006a
:10146c00c1ff0000c1ff0000caff0000d3ff000055
:10147c00dcff0000e1ff0000e1ff0000daff0000ec
:10148c00d1ff0000d1ff0000ceff0000c4ff000020
:10149c00c1ff0000c1ff0000afff00009fff000074
:1014ac0095ff00008cff000083ff000071ff00001f
:1014bc0060ff000056ff000049ff000036ff0000ef
:1014cc0024ff000011ff000008ff000001ff0000d6
:1014dc0001ff000001ff000001ff000001ff000000
:1014ec0003ff00000cff000016ff00001fff0000b0
:1014fc0028ff000032ff00003bff000048ff000007
:10150c005bff000067ff000071ff000083ff00001d
:10151c0093ff00009dff0000abff0000beff00002a
:10152c00c9ff0000d2ff0000dcff0000e5ff000057
:10153c00eeff0000f1ff0000f9ff000000000000ca
:10154c000100000094000000130100008b0100005a
:10155c00fc01000069020000d602000040030000fc
:10156c00a5030000050400005f040000b7040000a0
:10157c000805000057050000a3050000e805000061
:10158c0029060000630600009c060000d00600003f
:10159c00ff060000290700004e070000710700003d
:1015ac008e070000a9070000bf070000d20700004b
:1015bc00e2070000ed070000f7070000fc07000041
:1015cc000008000001080000fe070000fb070000f7
:1015dc00f5070000ed070000e3070000d807000046
:1015ec00cc070000be070000af0700009f070000fb
:1015fc008e0700007e0700006b07000059070000f3
:10160c004707000034070000220700000f07000006
:10161c00fc060000eb060000d9060000c80600001e
:10162c00b8060000a8060000990600008a06000013
:10163c007c060000700600006406000059060000dd
:10164c004f060000470600003f0600003806000069
:10165c00330600002e0600002c0600002a060000af
:10166c0029060000290600002b0600002e060000ab
:10167c0032060000370600003d060000440600005c
:10168c004d06000056060000610600006d060000c5
:10169c00790600008606000095060000a4060000ee
:1016ac00b3060000c3060000d4060000e6060000e6
:1016bc00f8060000090700001b0700002e070000b9
:1016cc004107000053070000650700007607000083
:1016dc008807000098070000a8070000b807000062
:1016ec00c6070000d3070000de070000e907000072
:1016fc00f2070000f8070000fd07000000080000da
:10170c0000080000fe070000fa070000f3070000c5
:10171c00e8070000dc070000cb070000b70700005b
:10172c00a0070000850700006707000044070000c1
:10173c001e070000f2060000c3060000920600001f
:10174c005a0600001e060000dc050000970500008c
:10175c005005000002050000b2040000590400000e
:10176c00fe030000a103000040030000dc020000a7
:10177c006f02000002020000930100002201000031
:10178c00b00000003a000000c2ff000046ff00005d
:10179c00cbfe000051fe0000d8fd00005ffd0000f4
:1017ac00e3fc00006bfc0000f8fb000088fb000071
:1017bc001afb0000affa000049fa0000ebf9000038
:1017cc0094f9000042f90000fbf80000b8f80000a2
:1017dc0080f8000051f800002cf8000015f800000b
:1017ec0004f8000006f8000010f8000028f80000cb
:1017fc004ef800007df80000c3f8000010f900005e
:10180c006df90000d5f9000048fa0000d1fa00008b
:10181c005ffb0000fafb00009bfc000046fd000093
:10182c00f7fd0000adfe00006dff00002d00000074
:10183c00ea000000a6010000620200001d03000087
:10184c00d50300007c0400001a050000ad05000063
:10185c0033060000b2060000110700006707000005
:10186c00a9070000d6070000f8070000fa070000df
:10187c00f1070000ce0700009b070000570700008f
:10188c00f80600008e0600000e060000830500001e
:10189c00ea0400003d04000087030000c7020000ba
:1018ac000402000039010000660000008eff0000f9
:1018bc00bdfe0000eefd000026fd000060fc0000f7
:1018cc009ffb0000f2fa00004dfa0000c2f9000084
:1018dc0041f90000d6f8000080f8000038f800004c
:1018ec0018f8000005f8000015f800003df800009d
:1018fc007ff80000e1f8000051f90000e8f9000061
:10190c0090fa000056fb00002bfc000008fd0000c4
:10191c00f8fd0000edfe0000efff0000ec00000001
:10192c00e5010000d4020000bf0300009504000094
:10193c005e05000017060000ac0600003207000030
:10194c0088070000cf070000f2070000f507000031
:10195c00e2070000a307000055070000dc060000aa
:10196c0052060000b3050000fa0400003704000022
:10197c00530300006b0200007d0100008a00000090
:10198c0095ff0000a1fe0000affd0000bffc0000b1
:10199c00e0fb000010fb00005afa0000aef900005a
:1019ac0022f90000acf8000055f8000023f8000004
:1019bc0002f800001af8000043f8000095f8000047
:1019cc0008f9000091f900004efa000018fb000025
:1019dc0000fc0000f4fc0000f9fd000006ff000014
:1019ec001600000030010000430200004703000015
:1019fc00380400001e050000e205000096060000f9
:101a0c001c07000085070000d2070000ef0700004c
:101a1c00fa070000cf0700008f0700002e07000018
:101a2c00a70600000e060000520500008d04000001
:101a3c00af030000c6020000d3010000ce0000007e
:101a4c00c8ff0000cbfe0000d2fd0000e0fc00004f
:101a5c00f9fb000018fb00005efa0000b2f9000070
:101a6c0022f90000aff800004df8000021f800004a
:101a7c0006f8000019f800004bf800009df8000073
:101a8c0019f90000a4f900005efa000028fb000020
:101a9c000cfc00000afd000014fe000021ff0000f9
:101aac002e0000003b010000470200005203000022
:101abc003e0400001e050000db050000850600004a
:101acc00160700007b070000cf070000ed070000a1
:101adc00f9070000e0070000a5070000540700000c
:101aec00dc06000057060000b2050000fa040000f6
:101afc002c04000053030000740200008801000055
:101b0c00980000009fff0000affe0000c4fd000025
:101b1c00e7fc00000efc000040fb000088fa00000f
:101b2c00e1f9000058f90000dbf8000083f8000030
:101b3c003df8000013f800000bf8000013f800004b
:101b4c004af8000091f80000fdf800007ff9000051
:101b5c0012fa0000c6fa000085fb000062fc0000cf
:101b6c0046fd00002ffe00001cff00000b000000d3
:101b7c0001010000f1010000d5020000ad030000de
:101b8c007d04000033050000df0500007406000032
:101b9c00f20600005a070000a2070000dd07000053
:101bac00f3070000fa070000e7070000bb0700007e
:101bbc008307000026070000c0060000480600004e
:101bcc00c10500002f05000086040000d8030000aa
:101bdc00230300006a020000ac010000ea000000d0
:101bec00280000005fff00009bfe0000e0fd0000ed
:101bfc002cfd00007bfc0000d3fb000031fb00003f
:101c0c00a2fa00001efa0000a5f900003cf9000041
:101c1c00daf8000093f8000057f800002bf80000e9
:101c2c0012f8000001f800000df8000020f8000088
:101c3c0048f800007df80000bef8000016f900001e
:101c4c0075f90000e4f900005bfa0000dcfa000012
:101c5c006dfb000002fc00009efc00003dfd00003e
:101c6c00e0fd000088fe000033ff0000d7ff0000fd
:101c7c007a0000001b010000bc0100005e020000a5
:101c8c00f4020000860300000e0400009104000022
:101c9c000b0500007d050000ec0500004806000067
:101cac009f060000ea0600002d0700006a070000ee
:101cbc0097070000c0070000db070000ef070000db
:101ccc00fc070000fe070000fc070000ee07000008
:101cdc00dc070000c0070000a00700007b07000025
:101cec004e0700001f070000e9060000ae060000ca
:101cfc006f0600002d060000ea050000a305000099
:101d0c00590500000b050000bd0400006f04000025
:101d1c001f040000cf0300007b0300002903000018
:101d2c00d80200008702000036020000e401000027
:101d3c009301000045010000f9000000ad00000017
:101d4c006300000019000000d0ff000089ff0000b4
:101d5c0045ff000004ff0000c3fe000083fe0000ee
:101d6c0045fe00000bfe0000d3fd00009cfd0000b2
:101d7c0066fd000033fd000003fd0000d5fc0000f3
:101d8c00a8fc00007dfc000053fc00002dfc0000b2
:101d9c0009fc0000e6fb0000c5fb0000a6fb0000f0
:101dac0088fb00006cfb000052fb00003afb0000bb
:101dbc0022fb00000dfb0000f9fa0000e7fa00001e
:101dcc00d7fa0000c7fa0000bafa0000adfa00001a
:101ddc00a2fa000098fa000090fa000089fa0000bc
:101dec0083fa00007ffa00007bfa000079fa000009
:101dfc0079fa000079fa00007bfa00007efa000004
:101e0c0083fa000088fa00008ffa000098fa0000ac
:101e1c00a1fa0000adfa0000b9fa0000c6fa000001
:101e2c00d6fa0000e7fa0000f9fa00000cfb0000fb
:101e3c0022fb000039fb000051fb00006cfb000092
:101e4c0088fb0000a6fb0000c5fb0000e6fb0000c1
:101e5c000afc000030fc000057fc000080fc000075
:101e6c00aafc0000d8fc000008fd00003afd0000b0
:101e7c006cfd0000a2fd0000dafd000015fe000064
:101e8c0051fe00008efe0000cefe00000fff000091
:101e9c0052ff000099ff0000e2ff00002b00000041
:101eac0075000000c100000010010000610100007d
:101ebc00b20100000202000054020000a702000060
:101ecc00fc02000050030000a2030000f403000019
:101edc00460400009a040000ea04000038050000e3
:101eec0083050000cd050000130600005806000015
:101efc009b060000d60600001007000041070000fa
:101f0c00700700009a070000bc070000d90700000a
:101f1c00ec070000fa070000ff070000fb070000b9
:101f2c00f1070000da070000be070000930700006d
:101f3c006107000026070000de0600009206000084
:101f4c0035060000d10500005e050000e404000029
:101f5c0065040000da03000049030000aa02000037
:101f6c000902000067010000c0000000180000001a
:101f7c0068ff0000b9fe00000efe000065fd0000c9
:101f8c00bdfc000019fc000079fb0000e8fa000021
:101f9c0061fa0000e2f9000074f900000df900008c
:101fac00baf8000072f800003df800001cf80000c0
:101fbc0004f800000af8000019f800003ef80000d0
:101fcc0074f80000b7f8000016f900007ef9000064
:101fdc00f9f9000080fa000014fb0000bcfb0000c3
:101fec006bfc000024fd0000e2fd0000a8fe0000d8
:101ffc0071ff00003d00000011010000e201000033
:10200c00aa0200006b03000027040000da040000a1
:10201c0087050000170600009c0600000f07000053
:10202c006a070000bb070000e1070000fb07000087
:10203c00f4070000d1070000990700003b070000df
:10204c00cf0600003d06000099050000dd040000ed
:10205c00030400001d030000280200002f010000f3
:10206c00310000002bff000022fe00002afd0000c2
:10207c0039fc00005cfb00008efa0000d0f9000077
:10208c003df90000b9f8000065f8000026f80000e2
:10209c000af8000016f8000034f8000088f8000078
:1020ac00eaf8000072f9000016fa0000d1fa0000fc
:1020bc00a6fb000083fc000076fd000074fe00000f
:1020cc0081ff0000880000008e0100008b020000e0
:1020dc008303000072040000470500000b0600009b
:1020ec00a60600003307000096070000d907000081
:1020fc00fa070000e6070000c00700005a070000be
:10210c00d90600002b0600005a05000077040000d9
:10211c006a030000510200001e010000eeff0000e7
:10212c00c1fe00009cfd00007bfc00006ffb00006a
:10213c007dfa0000b0f9000010f9000083f80000ef
:10214c003ef800000ff8000015f8000047f80000fa
:10215c0096f8000020f90000bdf9000090fa00008c
:10216c0074fb00006cfc00007bfd000092fe000084
:10217c00c0ff0000e9000000090200001c03000081
:10218c002704000017050000f8050000a906000050
:10219c0039070000a9070000de070000fc0700005b
:1021ac00d1070000860700000c0700005d06000048
:1021bc009805000089040000700300003f02000035
:1021cc0004010000c2ff000079fe000034fd000095
:1021dc0010fc000004fb000015fa000056f900008a
:1021ec00aaf8000052f8000016f8000010f80000e1
:1021fc003df8000088f800001cf90000c3f900004d
:10220c0097fa000084fb000087fc0000acfd000086
:10221c00d9fe000008000000340100005c02000040
:10222c0079030000900400007405000046060000cd
:10223c00ee0600006f070000d2070000ed0700005b
:10224c00f0070000ab07000043070000ae060000db
:10225c00db050000f1040000d6030000af02000013
:10226c007201000029000000d8fe00009dfd000056
:10227c006bfc000057fb00005ffa000081f90000c6
:10228c00e5f8000061f8000028f800000ef80000e6
:10229c0028f8000076f80000ddf8000085f9000051
:1022ac003efa000020fb00001dfc000032fd000087
:1022bc0052fe000075ff00009d000000c5010000eb
:1022cc00eb020000f4030000f2040000c305000060
:1022dc00850600002107000090070000e2070000bf
:1022ec00f0070000e80700009e0700003007000020
:1022fc009d060000d6050000fc040000f103000060
:10230c00d60200009f0100006a00000035ff0000ab
:10231c0008fe0000dffc0000c5fb0000ccfa00004a
:10232c00eff9000045f90000aff8000054f8000088
:10233c0019f800000bf800002df8000064f80000fc
:10234c00e0f800006af9000019fa0000e2fa000057
:10235c00bcfb0000b1fc0000b0fd0000c5fe00009d
:10236c00d7ff0000e6000000ee010000f2020000c2
:10237c00e9030000d10400009c0500004b0600009e
:10238c00ea0600005b070000b9070000e807000040
:10239c00f6070000e7070000a20700004c0700004a
:1023ac00c30600002606000069050000900400002a
:1023bc00aa0300009e0200009101000083000000af
:1023cc0077ff00006cfe000062fd000060fc000066
:1023dc007dfb0000adfa0000f2f9000058f9000096
:1023ec00cbf8000075f8000030f800000ff8000082
:1023fc000ef8000021f8000061f80000adf80000b4
:10240c001cf900009df9000030fa0000e1fa000010
:10241c009bfb000064fc000032fd000009fe000084
:10242c00eafe0000d0ff0000ad00000088010000b3
:10243c005c0200002c030000f8030000ac04000058
:10244c0057050000ec05000075060000ef060000c3
:10245c004d0700009f070000ce070000f2070000a8
:10246c00fc070000ee070000d107000093070000f6
:10247c004c070000ea06000076060000f00500009c
:10248c0059050000bc0400000c04000054030000bb
:10249c008f020000c9010000040100003f00000091
:1024ac007bff0000bafe0000f8fd000037fd0000c5
:1024bc0087fc0000ddfb000043fb0000affa0000ce
:1024cc0026fa0000b1f9000045f90000f0f8000010
:1024dc00a3f8000066f8000039f8000017f80000b7
:1024ec000af8000003f8000010f8000026f80000bd
:1024fc0047f8000076f80000aaf80000eef800009b
:10250c0038f900008ef90000eaf9000049fa0000e1
:10251c00b1fa00001dfb000092fb000007fc00005c
:10252c007efc0000f8fc000073fd0000f4fd0000d0
:10253c0074fe0000f4fe000066ff0000f9ff0000ce
:10254c0001000000260000004700000069000000a8
:10255c008b000000a9000000c5000000e100000095
:10256c00ff0000001e0100003c0100005a010000a9
:10257c007501000090010000ac010000c8010000d2
:10258c00e5010000ff01000019020000320200000a
:10259c004c020000660200007f020000980200005e
:1025ac00af020000c7020000de020000f5020000ce
:1025bc000c03000022030000370300004c03000052
:1025cc006003000075030000890300009c030000f9
:1025dc00ae030000bf030000d0030000e1030000c5
:1025ec00f203000002040000100400001e040000ae
:1025fc002b040000380400004404000050040000c8
:10260c005a040000630400006c0400007404000011
:10261c007c04000082040000880400008c0400008c
:10262c008f04000093040000950400009704000040
:10263c00970400009604000095040000920400002a
:10264c00900400008c040000880400008204000048
:10265c007c040000750400006e0400006604000099
:10266c005e040000540400004a0400004004000012
:10267c00360400002a0400001f04000013040000ac
:10268c0006040000fa030000ee030000e103000062
:10269c00d4030000c7030000ba030000ad03000020
:1026ac00a003000093030000860300007a030000df
:1026bc006d03000061030000560300004a03000094
:1026cc003f030000350300002a0300002003000034
:1026dc00170300000e03000006030000fe020000ba
:1026ec00f6020000ef020000e9020000e302000025
:1026fc00de020000da020000d5020000d202000067
:10270c00cf020000cd020000cb020000ca02000084
:10271c00c9020000c9020000c9020000ca02000080
:10272c00cc020000ce020000d0020000d302000058
:10273c00d6020000d9020000dd020000e202000017
:10274c00e6020000eb020000f1020000f6020000bd
:10275c00fc02000002030000080300000e0300004e
:10276c00150300001c0300002303000029030000d4
:10277c0030030000370300003e0300004503000057
:10278c004c03000052030000590300005f030000db
:10279c00650300006c030000720300007803000066
:1027ac007d03000083030000880300008d030000fc
:1027bc0092030000960300009a0300009e030000a1
:1027cc00a2030000a5030000a8030000ab03000057
:1027dc00ad030000af030000b2030000b303000020
:1027ec00b5030000b6030000b6030000b7030000f9
:1027fc00b7030000b8030000b8030000b8030000e2
:10280c00b7030000b6030000b5030000b4030000da
:10281c00b4030000b2030000b1030000b0030000d9
:10282c00af030000ad030000ac030000aa030000de
:10283c00a9030000a7030000a6030000a5030000e5
:10284c00a4030000a2030000a1030000a0030000e9
:10285c009f0300009e0300009d0300009d030000e9
:10286c009c0300009c0300009b0300009b030000e2
:10287c009b0300009b0300009b0300009c030000d3
:10288c009c0300009c0300009d0300009d030000be
:10289c009e0300009e0300009f030000a0030000a5
:1028ac00a0030000a1030000a1030000a20300008c
:1028bc00a2030000a3030000a3030000a403000074
:1028cc00a4030000a4030000a4030000a403000060
:1028dc00a4030000a4030000a3030000a303000052
:1028ec00a2030000a2030000a1030000a10300004a
:1028fc00a00300009f0300009d0300009c03000048
:10290c009b0300009a030000990300009803000049
:10291c009703000096030000950300009403000049
:10292c009303000092030000910300009003000049
:10293c00900300008f0300008f0300008f03000042
:10294c008f0300008f030000900300009003000031
:10295c009103000092030000930300009503000014
:10296c0097030000980300009b0300009d030000e8
:10297c009f030000a2030000a5030000a8030000b1
:10298c00ac030000af030000b3030000b70300006a
:10299c00bb030000bf030000c4030000c803000019
:1029ac00cd030000d2030000d7030000dc030000bd
:1029bc00e1030000e6030000ec030000f10300005b
:1029cc00f7030000fd0300000304000009040000ed
:1029dc000f040000150400001b040000210400007b
:1029ec00270400002e040000340400003b04000007
:1029fc0041040000480400004f040000550400008e
:102a0c005c040000630400006a040000720400000f
:102a1c007904000080040000870400008f0400008b
:102a2c00960400009e040000a6040000ad04000003
:102a3c00b5040000bd040000c5040000cd04000076
:102a4c00d5040000dd040000e5040000ed040000e6
:102a5c00f5040000fd040000050500000d05000054
:102a6c00150500001d050000260500002d050000c1
:102a7c00350500003d050000440500004b05000035
:102a8c0052050000590500006005000066050000b5
:102a9c006c05000072050000780500007c05000044
:102aac008105000085050000890500008c050000eb
:102abc008f050000920500009305000094050000ae
:102acc009505000095050000950500009405000093
:102adc0092050000900500008d0500008a0500009d
:102aec0086050000810500007c05000076050000cd
:102afc007005000069050000620500005905000022
:102b0c0051050000480500003e050000340500009a
:102b1c002a0500001f05000014050000090500002f
:102b2c00fd040000f2040000e5040000d9040000dc
:102b3c00cd040000c1040000b4040000a80400008f
:102b4c009b0400008f040000830400007704000045
:102b5c006b0400005f0400005404000048040000f3
:102b6c003d04000033040000280400001e04000093
:102b7c00150400000c04000004040000fc03000019
:102b8c00f4030000ed030000e6030000e103000085
:102b9c00db030000d6030000d2030000ce030000cc
:102bac00cb030000c8030000c6030000c4030000f0
:102bbc00c3030000c3030000c2030000c3030000f2
:102bcc00c4030000c6030000c8030000ca030000d1
:102bdc00ce030000d1030000d5030000d903000090
:102bec00de030000e4030000e9030000ef03000033
:102bfc00f6030000fd030000040400000b040000b9
:102c0c00130400001b040000230400002c0400002b
:102c1c00340400003e04000047040000500400008f
:102c2c005a040000630400006d04000077040000e7
:102c3c00810400008c04000096040000a104000034
:102c4c00ab040000b6040000c0040000cb0400007c
:102c5c00d5040000e0040000eb040000f5040000c3
:102c6c00ff0400000a050000140500001e0500000a
:102c7c0028050000320500003c0500004505000059
:102c8c004f050000580500006005000069050000b4
:102c9c007105000079050000800500008705000023
:102cac008d05000093050000990500009e050000ad
:102cbc00a2050000a6050000a9050000ab05000058
:102ccc00ad050000ad050000ae050000ad0500002f
:102cdc00ab050000a8050000a5050000a00500003c
:102cec009a050000940500008c0500008305000087
:102cfc00790500006d05000061050000530500001a
:102d0c0044050000340500002305000010050000f8
:102d1c00fc040000e6040000cf040000b70400002f
:102d2c009e04000083040000680400004a040000b4
:102d3c002c0400000c040000eb030000c90300008d
:102d4c00a5030000810300005c03000035030000b4
:102d5c000e030000e5020000bc020000920200001d
:102d6c00670200003c02000010020000e3010000ba
:102d7c00b7010000890100005c0100002e01000079
:102d8c0000010000d2000000a4000000760000004a
:102d9c00480000001b000000eeff0000c2ff000016
:102dac0096ff00006aff000040ff000016ff0000c5
:102dbc00ecfe0000c5fe00009dfe000078fe000049
:102dcc0053fe00002ffe00000dfe0000ecfd000085
:102ddc00ccfd0000aefd000091fd000076fd000072
:102dec005cfd000044fd00002dfd000018fd0000fe
:102dfc0005fd0000f3fc0000e3fc0000d5fc000026
:102e0c00c8fc0000bdfc0000b4fc0000acfc0000e1
:102e1c00a6fc0000a2fc00009efc00009dfc000033
:102e2c009dfc00009efc0000a2fc0000a6fc000023
:102e3c00abfc0000b2fc0000bafc0000c4fc0000bb
:102e4c00cefc0000d9fc0000e5fc0000f2fc000008
:102e5c0000fd00000efd00001efd00002dfd000019
:102e6c003efd00004ffd000060fd000071fd000004
:102e7c0083fd000095fd0000a7fd0000b9fd0000da
:102e8c00cbfd0000ddfd0000effd000000fe0000aa
:102e9c0011fe000022fe000032fe000042fe000087
:102eac0051fe000060fe00006efe00007cfe000083
:102ebc0088fe000094fe00009ffe0000aafe0000a9
:102ecc00b3fe0000bcfe0000c4fe0000cafe000001
:102edc00d0fe0000d5fe0000d8fe0000dbfe000096
:102eec00ddfe0000defe0000ddfe0000dcfe00006a
:102efc00dafe0000d7fe0000d3fe0000cdfe00007d
:102f0c00c6fe0000bffe0000b7fe0000aefe0000d3
:102f1c00a3fe000098fe00008cfe00007ffe000067
:102f2c0072fe000063fe000055fe000045fe00002e
:102f3c0034fe000023fe000011fe0000fffd000027
:102f4c00ecfd0000d8fd0000c4fd0000b0fd000049
:102f5c009bfd000086fd000071fd00005cfd000083
:102f6c0046fd000031fd00001bfd000005fd0000ca
:102f7c00effc0000dafc0000c4fc0000affc000019
:102f8c0099fc000084fc00006ffc00005bfc00005e
:102f9c0047fc000033fc000020fc00000cfc00008f
:102fac00fafb0000e8fb0000d6fb0000c5fb0000ac
:102fbc00b5fb0000a5fb000095fb000086fb0000a4
:102fcc0078fb00006afb00005dfb000050fb00007a
:102fdc0044fb000039fb00002efb000024fb00002a
:102fec001afb000010fb000007fb0000fffa0000ba
:102ffc00f7fa0000f0fa0000e9fa0000e2fa00002b
:10300c00dcfa0000d7fa0000d1fa0000ccfa00007c
:10301c00c8fa0000c3fa0000bffa0000bbfa0000b7
:10302c00b7fa0000b3fa0000b0fa0000acfa0000e6
:10303c00a9fa0000a6fa0000a3fa00009ffa00000b
:10304c009cfa000099fa000096fa000092fa00002f
:10305c008ffa00008bfa000088fa000084fa000056
:10306c0080fa00007cfa000078fa000073fa000085
:10307c006ffa00006afa000065fa00005ffa0000bf
:10308c005afa000055fa00004ffa000049fa000005
:10309c0043fa00003cfa000036fa00002ffa000058
:1030ac0029fa000022fa00001bfa000014fa0000b2
:1030bc000cfa000005fa0000fef90000f7f9000018
:1030cc00eff90000e8f90000e1f90000daf900007e
:1030dc00d3f90000ccf90000c5f90000bef90000de
:1030ec00b8f90000b2f90000acf90000a6f9000034
:1030fc00a0f900009bf9000096f9000091f900007e
:10310c008df9000088f9000085f9000081f90000b4
:10311c007ef900007bf9000079f9000076f90000d7
:10312c0074f9000072f9000071f9000070f90000e8
:10313c006ff900006ff900006ff900006ff90000e3
:10314c006ff900006ff9000070f9000070f90000d1
:10315c0071f9000072f9000073f9000074f90000b5
:10316c0075f9000076f9000077f9000078f9000095
:10317c0079f900007af900007af900007af9000078
:10318c007af900007af900007af9000079f9000068
:10319c0078f9000076f9000074f9000072f900006b
:1031ac006ff900006df9000069f9000065f9000085
:1031bc0061f900005cf9000057f9000051f90000ba
:1031cc004bf9000044f900003df9000036f900000d
:1031dc002ef9000025f900001df9000013f900007c
:1031ec000af9000000f90000f6f80000ecf8000005
:1031fc00e2f80000d7f80000ccf80000c1f800009d
:10320c00b6f80000abf80000a0f8000095f800003c
:10321c008af800007ff8000074f800006af80000db
:10322c0060f8000056f800004cf8000043f800006d
:10323c003af8000032f800002af8000023f80000e9
:10324c001cf8000016f8000011f800000df8000042
:10325c0009f8000006f8000003f8000002f800006e
:10326c0001f8000002f8000003f8000006f8000066
:10327c0009f800000df8000012f8000019f8000021
:10328c0020f8000029f8000032f800003df800009a
:10329c0048f8000055f8000063f8000072f80000d0
:1032ac0082f8000092f80000a4f80000b7f80000c3
:1032bc00ccf80000e1f80000f7f800000ef900006f
:1032cc0025f900003ef9000057f9000072f90000e2
:1032dc008df90000a9f90000c6f90000e3f900001f
:1032ec0001fa00001ffa00003efa00005efa00002e
:1032fc007dfa00009dfa0000befa0000defa000024
:10330c00fffa000020fb000041fb000062fb000004
:10331c0083fb0000a4fb0000c4fb0000e4fb0000e6
:10332c0004fc000024fc000043fc000062fc0000d4
:10333c0080fc00009dfc0000bafc0000d6fc0000e4
:10334c00f1fc00000cfd000025fd00003efd00001e
:10335c0056fd00006cfd000082fd000097fd000092
:10336c00aafd0000bcfd0000cdfd0000ddfd00004d
:10337c00ebfd0000f9fd000005fe00000ffe000053
:10338c0019fe000020fe000027fe00002dfe0000ac
:10339c0031fe000034fe000035fe000035fe00005a
:1033ac0034fe000031fe00002efe000029fe00005d
:1033bc0023fe00001bfe000013fe000009fe0000af
:1033cc00fffd0000f3fd0000e7fd0000d9fd00004b
:1033dc00cbfd0000bcfd0000acfd00009cfd00001e
:1033ec008afd000078fd000066fd000054fd000021
:1033fc0041fd00002dfd000019fd000005fd000041
:10340c00f2fc0000defc0000cafc0000b6fc000070
:10341c00a2fc00008efc00007bfc000069fc00009c
:10342c0057fc000045fc000033fc000022fc0000af
:10343c0012fc000003fc0000f5fb0000e7fb0000a1
:10344c00dafb0000cefb0000c3fb0000b9fb000060
:10345c00b0fb0000a8fb0000a1fb00009bfb0000e0
:10346c0097fb000094fb000091fb000091fb000017
:10347c0091fb000092fb000094fb000098fb000005
:10348c009efb0000a4fb0000acfb0000b4fb0000a2
:10349c00befb0000c9fb0000d6fb0000e3fb0000f4
:1034ac00f1fb000001fc000011fc000023fc0000fb
:1034bc0036fc00004afc00005efc000073fc0000bf
:1034cc0089fc0000a1fc0000b9fc0000d2fc00004b
:1034dc00ecfc000005fd000020fd00003bfd0000a1
:1034ec0058fd000075fd000092fd0000aefd0000cf
:1034fc00ccfd0000ebfd00000afe00002afe0000df
:10350c0049fe000066fe000086fe0000a6fe0000dc
:10351c00c7fe0000e8fe000007ff000026ff0000c9
:10352c0044ff000066ff000089ff0000acff0000b4
:10353c00c9ff0000e0ff0000f0ff0000f9ff0000f1
:10354c004000000080000000c000000000010000ee
:10355c003f0100007e010000bc010000fa010000e8
:10356c003702000073020000af020000e902000005
:10357c00230300005b03000093030000c903000059
:10358c00fd030000310400006304000094040000fb
:10359c00c3040000f10400001d05000047050000f5
:1035ac007005000097050000bd050000e105000056
:1035bc000306000023060000420600005e06000021
:1035cc007a06000093060000ab060000c00600005f
:1035dc00d5060000e7060000f8060000070700000b
:1035ec0015070000210700002c070000350700001c
:1035fc003c07000043070000480700004b07000091
:10360c004e0700004f0700004f0700004f07000057
:10361c004d0700004a070000470700004207000062
:10362c003d07000037070000310700002a070000a3
:10363c00230700001b070000130700000b07000006
:10364c0002070000fa060000f1060000e806000080
:10365c00e0060000d7060000cf060000c7060000f9
:10366c00bf060000b7060000b0060000a906000067
:10367c00a20600009c0600009706000092060000bf
:10368c008e0600008a0600008706000084060000f3
:10369c008206000081060000800600008006000003
:1036ac0081060000820600008406000087060000e8
:1036bc008a0600008e0600009206000097060000a5
:1036cc009d060000a3060000aa060000b20600003a
:1036dc00b9060000c2060000ca060000d3060000ae
:1036ec00dd060000e7060000f1060000fb06000006
:1036fc0006070000100700001b070000260700004b
:10370c00310700003c07000047070000520700008b
:10371c005d07000068070000730700007d070000cc
:10372c0087070000910700009b070000a40700001a
:10373c00ad070000b6070000be070000c60700007a
:10374c00cd070000d4070000da070000e0070000f6
:10375c00e6070000eb070000ef070000f30700008e
:10376c00f6070000f9070000fb070000fd0700004a
:10377c00fe070000ff070000ff070000ff07000026
:10378c00fe070000fd070000fb070000f907000022
:10379c00f6070000f3070000f0070000ec0700003c
:1037ac00e8070000e3070000df070000da0700006d
:1037bc00d5070000cf070000ca070000c4070000af
:1037cc00be070000b9070000b3070000ad070000fa
:1037dc00a7070000a10700009b0700009507000049
:1037ec00900700008a070000850700007f07000093
:1037fc007a07000076070000710700006d070000d3
:10380c006907000065070000620700005e07000002
:10381c005c0700005907000057070000550700001f
:10382c005407000053070000520700005107000026
:10383c005107000051070000520700005307000019
:10384c0054070000550700005707000059070000f7
:10385c005b0700005d0700006007000063070000c5
:10386c0066070000690700006c0700006f07000086
:10387c007207000076070000790700007c07000043
:10388c0080070000830700008607000089070000fe
:10389c008c0700008f0700009107000093070000c1
:1038ac009607000097070000990700009a07000090
:1038bc009b0700009c0700009c0700009c07000071
:1038cc009c0700009b0700009a0700009807000067
:1038dc009607000094070000910700008e07000077
:1038ec008a07000086070000810700007c070000a3
:1038fc0077070000710700006b07000064070000e9
:10390c005d070000550700004e0700004607000049
:10391c003d070000340700002b07000022070000c1
:10392c00190700000f07000005070000fb06000048
:10393c00f0060000e6060000db060000d1060000e1
:10394c00c6060000bb060000b0060000a50600007d
:10395c009b06000090060000850600007b06000018
:10396c0070060000660600005c06000052060000af
:10397c00480600003f060000360600002c0600003a
:10398c00240600001b060000130600000b060000b6
:10399c0003060000fc050000f5050000ee05000024
:1039ac00e7050000e1050000db050000d60500007e
:1039bc00d0050000cb050000c6050000c2050000c4
:1039cc00be050000ba050000b6050000b2050000f7
:1039dc00af050000ab050000a8050000a505000020
:1039ec00a20500009f0500009d0500009a0500003f
:1039fc009705000094050000920500008f0500005b
:103a0c008c0500008905000085050000820500007a
:103a1c007f0500007b0500007705000073050000a2
:103a2c006e05000069050000640500005f050000dc
:103a3c0059050000520500004c050000450500002a
:103a4c003d050000350500002d0500002405000093
:103a5c001b0500001205000007050000fd04000016
:103a6c00f2040000e6040000da040000ce040000ba
:103a7c00c1040000b4040000a60400009804000077
:103a8c008a0400007b0400006c0400005c0400004d
:103a9c004d0400003c0400002c0400001b0400003a
:103aac000b040000fa030000e8030000d703000039
:103abc00c6030000b4030000a20300009103000041
:103acc007f0300006e0300005c0300004b0300004a
:103adc003903000028030000170300000603000050
:103aec00f6020000e6020000d6020000c60200004a
:103afc00b6020000a7020000990200008a02000032
:103b0c007c0200006f0200006202000055020000ff
:103b1c00490200003d0200003102000026020000b4
:103b2c001c0200001202000008020000ff0100004d
:103b3c00f6010000ed010000e5010000dd010000d0
:103b4c00d6010000cf010000c8010000c201000036
:103b5c00bb010000b5010000b0010000aa0100008b
:103b6c00a40100009f0100009a01000094010000d4
:103b7c008f0100008a010000840100007f01000019
:103b8c0079010000740100006d0100006701000064
:103b9c00610100005a010000520100004b010000bd
:103bac00420100003a010000310100002701000031
:103bbc001d0100001201000007010000fb000000c5
:103bcc00ee000000e1000000d2000000c400000084
:103bdc00b4000000a400000093000000810000006d
:103bec006f0000005c000000480000003300000083
:103bfc001e00000008000000f1ff0000daff0000ca
:103c0c00c2ff0000aaff000091ff000077ff000038
:103c1c005dff000043ff000028ff00000dff0000c7
:103c2c00f1fe0000d5fe0000b9fe00009dfe000074
:103c3c0081fe000064fe000048fe00002cfe000027
:103c4c0010fe0000f4fd0000d8fd0000bdfd0000da
:103c5c00a2fd000088fd00006efd000055fd000077
:103c6c003cfd000024fd00000dfd0000f7fc0000f1
:103c7c00e2fc0000cefc0000bbfc0000a9fc000034
:103c8c0098fc000088fc00007afc00006dfc000031
:103c9c0062fc000057fc00004ffc000048fc0000d8
:103cac0042fc00003efc00003cfc00003bfc000021
:103cbc003cfc00003ffc000043fc000049fc000001
:103ccc0051fc00005bfc000066fc000073fc000073
:103cdc0082fc000092fc0000a4fc0000b8fc000078
:103cec00cdfc0000e4fc0000fcfc000016fd000014
:103cfc0032fd00004ffd00006dfd00008cfd00004a
:103d0c00adfd0000cffd0000f2fd000016fe00002e
:103d1c003cfe000062fe000089fe0000b0fe0000c8
:103d2c00d9fe000002ff00002bff000055ff000031
:103d3c007fff0000aaff0000d5ff0000000000007c
:103d4c002a0000005500000080000000aa000000be
:103d5c00d4000000fd000000260100004f0100000f
:103d6c00760100009d010000c3010000e901000084
:103d7c000d0200003002000052020000730200002d
:103d8c0092020000b0020000cd020000e902000027
:103d9c00030300001b030000320300004703000074
:103dac005b0300006d0300007d0300008c0300002a
:103dbc0099030000a4030000ae030000b60300004a
:103dcc00bc030000c0030000c3030000c4030000d8
:103ddc00c3030000c1030000bd030000b7030000d3
:103dec00b0030000a80300009d0300009203000034
:103dfc0085030000770300006703000056030000f2
:103e0c0044030000310300001d0300000803000000
:103e1c00f2020000db020000c3020000aa02000054
:103e2c0091020000770200005d02000042020000d7
:103e3c00270200000b020000ef010000d30100007c
:103e4c00b70100009b0100007e0100006201000030
:103e5c00460100002a0100000e010000f2000000e3
:103e6c00d7000000bc000000a20000008800000089
:103e7c006e000000550000003d0000002500000011
:103e8c000e000000f7ff0000e1ff0000ccff000077
:103e9c00b7ff0000a3ff000090ff00007eff0000b2
:103eac006cff00005bff00004bff00003bff0000bd
:103ebc002dff00001eff000011ff000004ff00009a
:103ecc00f8fe0000edfe0000e2fe0000d8fe00004f
:103edc00cefe0000c5fe0000bdfe0000b4fe0000da
:103eec00adfe0000a5fe00009efe000098fe000046
:103efc0092fe00008bfe000086fe000080fe00009b
:103f0c007bfe000075fe000070fe00006bfe0000e2
:103f1c0065fe000060fe00005bfe000055fe000028
:103f2c004ffe00004afe000044fe00003dfe000073
:103f3c0037fe000030fe000029fe000022fe0000cb
:103f4c001afe000012fe000009fe000000fe000038
:103f5c00f7fd0000edfd0000e3fd0000d9fd0000c1
:103f6c00cefd0000c2fd0000b6fd0000aafd000061
:103f7c009dfd000090fd000083fd000075fd00001c
:103f8c0066fd000058fd000049fd000039fd0000f1
:103f9c0029fd000019fd000009fd0000f9fc0000de
:103fac00e8fc0000d7fc0000c6fc0000b4fc0000dc
:103fbc00a3fc000091fc000080fc00006efc0000e3
:103fcc005dfc00004bfc000039fc000028fc0000ec
:103fdc0017fc000005fc0000f4fb0000e4fb0000f3
:103fec00d3fb0000c3fb0000b2fb0000a3fb0000ee
:103ffc0093fb000084fb000075fb000067fb0000d6
:10400c0059fb00004bfb00003efb000031fb0000a5
:10401c0025fb000019fb00000dfb000002fb00005b
:10402c00f8fa0000edfa0000e4fa0000dbfa0000f8
:10403c00d2fa0000cafa0000c2fa0000bafa000074
:10404c00b3fa0000adfa0000a6fa0000a0fa0000d6
:10405c009bfa000096fa000091fa00008cfa00001e
:10406c0088fa000084fa000080fa00007dfa000053
:10407c007afa000076fa000073fa000070fa000079
:10408c006dfa00006bfa000068fa000065fa000097
:10409c0062fa000060fa00005dfa00005afa0000b3
:1040ac0057fa000054fa000050fa00004dfa0000d4
:1040bc0049fa000045fa000041fa00003dfa000000
:1040cc0039fa000034fa00002ffa000029fa000037
:1040dc0024fa00001efa000018fa000011fa000081
:1040ec000afa000003fa0000fcf90000f4f90000e1
:1040fc00ecf90000e4f90000dbf90000d3f9000052
:10410c00c9f90000c0f90000b7f90000adf90000d2
:10411c00a3f9000099f900008ff9000084f9000060
:10412c007af900006ff9000064f900005af90000f8
:10413c004ff9000044f9000039f900002ef9000095
:10414c0024f9000019f900000ff9000004f900002f
:10415c00faf80000f0f80000e6f80000ddf80000c6
:10416c00d4f80000cbf80000c2f80000b9f8000049
:10417c00b1f80000aaf80000a2f800009bf80000bb
:10418c0094f800008ef8000088f8000083f8000016
:10419c007ef8000079f8000075f8000071f8000056
:1041ac006ef800006bf8000069f8000067f800007a
:1041bc0065f8000064f8000063f8000063f8000084
:1041cc0063f8000063f8000064f8000065f8000074
:1041dc0066f8000068f8000069f800006cf8000050
:1041ec006ef8000070f8000073f8000076f800001c
:1041fc0079f800007cf800007ff8000083f80000dc
:10420c0086f8000089f800008df8000090f8000096
:10421c0093f8000096f8000099f800009cf8000054
:10422c009ff80000a2f80000a4f80000a6f8000017
:10423c00a8f80000aaf80000abf80000acf80000e9
:10424c00adf80000aef80000aef80000aef80000cb
:10425c00adf80000acf80000abf80000aaf80000c4
:10426c00a8f80000a6f80000a3f80000a1f80000d0
:10427c009df800009af8000096f8000092f80000f3
:10428c008ef8000089f8000085f8000080f8000026
:10429c007af8000075f800006ff800006af800006a
:1042ac0064f800005ef8000058f8000052f80000b6
:1042bc004cf8000046f8000041f800003bf8000004
:1042cc0035f8000030f800002af8000025f800004e
:1042dc0020f800001cf8000017f8000013f800008c
:1042ec000ff800000cf8000009f8000006f80000b8
:1042fc0004f8000002f8000001f8000000f80000cb
:10430c0000f8000000f8000001f8000002f80000be
:10431c0004f8000006f8000009f800000cf8000092
:10432c0010f8000014f8000019f800001ff8000045
:10433c0025f800002bf8000032f8000039f80000d6
:10434c0041f8000049f8000052f800005bf800004a
:10435c0064f800006ef8000078f8000082f80000a5
:10436c008cf8000097f80000a2f80000adf80000ef
:10437c00b8f80000c3f80000cef80000d9f800002f
:10438c00e4f80000eff80000f9f8000004f9000070
:10439c000ef9000018f9000022f900002cf90000b9
:1043ac0035f900003df9000046f900004df9000018
:1043bc0055f900005cf9000062f9000068f9000092
:1043cc006df9000071f9000075f9000078f9000032
:1043dc007bf900007df900007ef900007ff90000f8
:1043ec007ff900007ef900007df900007bf90000e8
:1043fc0078f9000075f9000071f900006df9000002
:10440c0068f9000063f900005df9000056f900003e
:10441c004ff9000048f9000040f9000038f900009d
:10442c0030f9000028f900001ff9000017f900000e
:10443c000ef9000005f90000fdf80000f4f800008a
:10444c00ecf80000e4f80000dcf80000d5f80000ff
:10445c00cef80000c8f80000c2f80000bdf800005b
:10446c00b8f80000b5f80000b2f80000b0f8000091
:10447c00b0f80000b0f80000b1f80000b4f800008b
:10448c00b7f80000bcf80000c3f80000caf8000040
:10449c00d3f80000def80000eaf80000f8f800009d
:1044ac0007f9000018f900002af900003ff9000094
:1044bc0054f900006cf9000085f90000a1f9000026
:1044cc00bdf90000dcf90000fcf900001efa000048
:1044dc0042fa000068fa00008ffa0000b8fa0000f7
:1044ec00e2fa00000efb00003cfb00006bfb00003e
:1044fc009cfb0000cefb000002fc000036fc000020
:10450c006cfc0000a4fc0000dcfc000016fd0000ac
:10451c0050fd00008cfd0000c8fd000005fe0000f1
:10452c0043fe000081fe0000c0fe0000fffe000004
:10453c003fff00007fff0000bfff000000000000f5
:10454c00f7ff0000020000000c0000001600000045
:10455c00210000002b000000350000003f0000008f
:10456c004a000000540000005e00000068000000db
:10457c00720000007d000000870000009100000028
:10458c009b000000a5000000af000000b900000077
:10459c00c3000000cd000000d7000000e1000000c7
:1045ac00eb000000f5000000ff0000000901000016
:1045bc00130100001d010000270100003101000063
:1045cc003b010000450100004f01000059010000b3
:1045dc00620100006c010000760100008001000007
:1045ec008a010000940100009e010000a801000057
:1045fc00b2010000bc010000c5010000cf010000a9
:10460c00d9010000e3010000ed010000f8010000f9
:10461c00020200000c020000160200002002000042
:10462c002a020000340200003f0200004902000090
:10463c00530200005e0200006802000072020000db
:10464c007d02000087020000920200009c02000024
:10465c00a7020000b1020000bc020000c70200006b
:10466c00d1020000dc020000e7020000f1020000b1
:10467c00fc02000007030000120300001c030000f2
:10468c0027030000320300003d0300004803000034
:10469c00520300005d030000680300007303000078
:1046ac007d03000088030000930300009e030000bc
:1046bc00a8030000b3030000be030000c803000001
:1046cc00d3030000dd030000e8030000f203000048
:1046dc00fc03000007040000110400001b04000090
:1046ec0026040000300400003a04000044040000da
:1046fc004e04000058040000610400006b0400002c
:10470c00750400007f04000088040000920400007f
:10471c009b040000a5040000ae040000b8040000d7
:10472c00c1040000ca040000d3040000dc04000033
:10473c00e6040000ef040000f8040000010500008e
:10474c000a050000120500001b05000024050000ee
:10475c002d050000360500003f0500004705000050
:10476c005005000059050000620500006b050000b3
:10477c00730500007c050000850500008e05000017
:10478c00970500009f050000a8050000b10500007a
:10479c00ba050000c3050000cc050000d5050000db
:1047ac00de050000e7050000f1050000fa05000039
:1047bc00030600000c060000160600001f06000091
:1047cc0028060000320600003b06000045060000eb
:1047dc004f06000058060000620600006c06000040
:1047ec00750600007f060000890600009306000095
:1047fc009d060000a7060000b0060000ba060000e7
:10480c00c4060000ce060000d8060000e206000038
:10481c00eb060000f5060000ff060000090700008b
:10482c00120700001c070000250700002e070000df
:10483c0038070000410700004a070000530700003a
:10484c005c070000640700006d070000750700009e
:10485c007d070000850700008d070000950700000c
:10486c009c070000a4070000ab070000b107000084
:10487c00b8070000be070000c4070000ca0700000c
:10488c00d0070000d5070000da070000df070000a2
:10489c00e3070000e7070000eb070000ee0700004d
:1048ac00f1070000f4070000f7070000f90700000b
:1048bc00fb070000fc070000fd070000fe070000de
:1048cc00ff070000ff070000ff070000fe070000c5
:1048dc00fd070000fc070000fb070000f9070000c3
:1048ec00f7070000f4070000f1070000ee070000d6
:1048fc00eb070000e7070000e3070000df070000fc
:10490c00da070000d5070000d0070000ca07000036
:10491c00c4070000be070000b8070000b107000084
:10492c00ab070000a40700009c07000095070000df
:10493c008d070000850700007d070000750700004b
:10494c006d070000640700005c07000053070000bf
:10495c004a07000041070000380700002e0700003e
:10496c00250700001c0700001207000009070000c3
:10497c00ff060000f5060000eb060000e206000052
:10498c00d8060000ce060000c4060000ba060000df
:10499c00b0060000a70600009d060000930600006c
:1049ac00890600007f060000750600006c060000fa
:1049bc0062060000580600004f0600004506000085
:1049cc003b06000032060000280600001f0600000f
:1049dc00160600000c06000003060000fa05000095
:1049ec00f1050000e7050000de050000d50500001c
:1049fc00cc050000c3050000ba050000b10500009d
:104a0c00a80500009f050000970500008e0500001a
:104a1c00850500007c050000730500006b05000097
:104a2c006205000059050000500500004705000014
:104a3c003f050000360500002d0500002405000090
:104a4c001b050000120500000a050000010500000e
:104a5c00f8040000ef040000e6040000dc04000091
:104a6c00d3040000ca040000c1040000b804000014
:104a7c00ae040000a50400009b040000920400009a
:104a8c00880400007f040000750400006b04000023
:104a9c0061040000580400004e04000044040000af
:104aac003a04000030040000260400001b0400003f
:104abc001104000007040000fc030000f2030000d6
:104acc00e8030000dd030000d3030000c80300006e
:104adc00be030000b3030000a80300009e03000007
:104aec0093030000880300007d03000073030000a3
:104afc00680300005d03000052030000480300003f
:104b0c003d03000032030000270300001c030000db
:104b1c001203000007030000fc020000f102000079
:104b2c00e7020000dc020000d1020000c702000016
:104b3c00bc020000b1020000a70200009c020000b1
:104b4c0092020000870200007d0200007202000049
:104b5c00680200005e0200005302000049020000df
:104b6c003f020000340200002a0200002002000074
:104b7c00160200000c02000002020000f801000006
:104b8c00ed010000e3010000d9010000cf0100009d
:104b9c00c5010000bc010000b2010000a80100002a
:104bac009e010000940100008a01000080010000b9
:104bbc00760100006c010000620100005901000048
:104bcc004f010000450100003b01000031010000d5
:104bdc00270100001d010000130100000901000065
:104bec00ff000000f5000000eb000000e1000000f9
:104bfc00d7000000cd000000c3000000b900000089
:104c0c00af000000a50000009b0000009100000018
:104c1c00870000007d0000007200000068000000aa
:104c2c005e000000540000004a0000003f0000003d
:104c3c00350000002b0000002100000016000000d1
:104c4c000c00000002000000f7ff0000edff000068
:104c5c00e3ff0000d9ff0000ceff0000c4ff0000fe
:104c6c00baff0000b0ff0000a6ff00009bff000091
:104c7c0091ff000087ff00007dff000073ff000024
:104c8c0069ff00005fff000055ff00004bff0000b4
:104c9c0041ff000037ff00002eff000024ff000042
:104cac001aff000011ff000007ff0000fdfe0000ce
:104cbc00f4fe0000eafe0000e1fe0000d8fe000059
:104ccc00cefe0000c5fe0000bcfe0000b3fe0000de
:104cdc00aafe0000a1fe000098fe00008ffe00005e
:104cec0086fe00007dfe000075fe00006cfe0000dc
:104cfc0063fe00005bfe000052fe00004afe000056
:104d0c0042fe000039fe000031fe000029fe0000ca
:104d1c0020fe000018fe000010fe000008fe00003f
:104d2c0000fe0000f8fd0000f0fd0000e8fd0000b2
:104d3c00e0fd0000d8fd0000d0fd0000c8fd000023
:104d4c00c1fd0000b9fd0000b1fd0000a9fd00008f
:104d5c00a2fd00009afd000092fd00008bfd0000fa
:104d6c0083fd00007bfd000074fd00006cfd000065
:104d7c0065fd00005dfd000055fd00004efd0000ce
:104d8c0046fd00003ffd000037fd000030fd000037
:104d9c0028fd000021fd00001afd000012fd00009e
:104dac000bfd000003fd0000fcfc0000f5fc000006
:104dbc00edfc0000e6fc0000dffc0000d8fc00006d
:104dcc00d1fc0000c9fc0000c2fc0000bbfc0000d0
:104ddc00b4fc0000adfc0000a6fc0000a0fc000030
:104dec0099fc000092fc00008bfc000085fc00008c
:104dfc007efc000078fc000071fc00006bfc0000e5
:104e0c0064fc00005efc000058fc000052fc00003a
:104e1c004cfc000046fc000040fc00003afc00008a
:104e2c0035fc00002ffc00002afc000024fc0000d4
:104e3c001ffc00001afc000015fc00000ffc000019
:104e4c000bfc000006fc000001fc0000fcfb000059
:104e5c00f8fb0000f3fb0000effb0000eafb000096
:104e6c00e6fb0000e2fb0000defb0000dafb0000ca
:104e7c00d6fb0000d2fb0000cffb0000cbfb0000f8
:104e8c00c8fb0000c4fb0000c1fb0000bdfb000020
:104e9c00bafb0000b7fb0000b4fb0000b1fb000044
:104eac00aefb0000abfb0000a8fb0000a5fb000064
:104ebc00a2fb0000a0fb00009dfb00009afb000081
:104ecc0098fb000095fb000093fb000090fb00009a
:104edc008efb00008cfb000089fb000087fb0000b0
:104eec0085fb000082fb000080fb00007efb0000c5
:104efc007cfb00007afb000077fb000075fb0000d8
:104f0c0073fb000071fb00006ffb00006dfb0000e9
:104f1c006bfb000069fb000067fb000066fb0000f8
:104f2c0064fb000062fb000060fb00005ffb000004
:104f3c005dfb00005bfb00005afb000058fb00000f
:104f4c0057fb000056fb000054fb000053fb000015
:104f5c0052fb000051fb000050fb00004ffb000017
:104f6c004efb00004dfb00004dfb00004cfb000015
:104f7c004cfb00004cfb00004bfb00004bfb00000b
:104f8c004bfb00004bfb00004cfb00004cfb0000fb
:104f9c004dfb00004dfb00004efb00004ffb0000e2
:104fac0050fb000051fb000053fb000054fb0000c1
:104fbc0056fb000057fb000059fb00005bfb000098
:104fcc005efb000060fb000063fb000065fb000063
:104fdc0068fb00006bfb00006efb000072fb000026
:104fec0075fb000078fb00007cfb000080fb0000e0
:104ffc0084fb000088fb00008cfb000090fb000091
:10500c0095fb000099fb00009efb0000a2fb00003a
:10501c00a7fb0000acfb0000b1fb0000b6fb0000de
:10502c00bafb0000bffb0000c5fb0000cafb000080
:10503c00cffb0000d4fb0000d9fb0000defb00001e
:10504c00e3fb0000e8fb0000edfb0000f2fb0000be
:10505c00f7fb0000fcfb000000fc000005fc00005e
:10506c000afc00000efc000012fc000017fc000003
:10507c001bfc00001ffc000023fc000026fc0000b1
:10508c002afc00002dfc000031fc000034fc000068
:10509c0036fc000039fc00003cfc00003efc00002b
:1050ac0040fc000042fc000043fc000045fc0000fa
:1050bc0046fc000047fc000048fc000049fc0000d6
:1050cc0049fc000049fc000049fc000049fc0000c0
:1050dc0048fc000047fc000046fc000045fc0000ba
:1050ec0043fc000042fc000040fc00003efc0000c1
:1050fc003cfc000039fc000036fc000034fc0000d5
:10510c0031fc00002dfc00002afc000026fc0000f5
:10511c0023fc00001ffc00001bfc000017fc00001f
:10512c0012fc00000efc00000afc000005fc000054
:10513c0000fc0000fcfb0000f7fb0000f2fb000091
:10514c00edfb0000e8fb0000e3fb0000defb0000d1
:10515c00d9fb0000d4fb0000cffb0000cafb000011
:10516c00c5fb0000bffb0000bafb0000b6fb000053
:10517c00b1fb0000acfb0000a7fb0000a2fb000091
:10518c009efb000099fb000095fb000090fb0000cb
:10519c008cfb000088fb000084fb000080fb0000ff
:1051ac007cfb000078fb000075fb000072fb00002c
:1051bc006efb00006bfb000068fb000065fb000051
:1051cc0063fb000060fb00005efb00005bfb00006b
:1051dc0059fb000057fb000056fb000054fb00007d
:1051ec0053fb000051fb000050fb00004ffb000084
:1051fc004efb00004dfb00004dfb00004cfb000083
:10520c004cfb00004bfb00004bfb00004bfb000079
:10521c004bfb00004cfb00004cfb00004cfb000067
:10522c004dfb00004dfb00004efb00004ffb00004f
:10523c0050fb000051fb000052fb000053fb000030
:10524c0054fb000056fb000057fb000058fb00000d
:10525c005afb00005bfb00005dfb00005ffb0000e5
:10526c0060fb000062fb000064fb000066fb0000ba
:10527c0067fb000069fb00006bfb00006dfb00008e
:10528c006ffb000071fb000073fb000075fb00005e
:10529c0077fb00007afb00007cfb00007efb00002b
:1052ac0080fb000082fb000085fb000087fb0000f8
:1052bc0089fb00008cfb00008efb000090fb0000c3
:1052cc0093fb000095fb000098fb00009afb00008c
:1052dc009dfb0000a0fb0000a2fb0000a5fb000052
:1052ec00a8fb0000abfb0000aefb0000b1fb000014
:1052fc00b4fb0000b7fb0000bafb0000bdfb0000d4
:10530c00c1fb0000c4fb0000c8fb0000cbfb00008d
:10531c00cffb0000d2fb0000d6fb0000dafb000044
:10532c00defb0000e2fb0000e6fb0000eafb0000f5
:10533c00effb0000f3fb0000f8fb0000fcfb00009f
:10534c0001fc000006fc00000bfc00000ffc000040
:10535c0015fc00001afc00001ffc000024fc0000df
:10536c002afc00002ffc000035fc00003afc000079
:10537c0040fc000046fc00004cfc000052fc00000d
:10538c0058fc00005efc000064fc00006bfc00009c
:10539c0071fc000078fc00007efc000085fc000025
:1053ac008bfc000092fc000099fc0000a0fc0000ab
:1053bc00a6fc0000adfc0000b4fc0000bbfc00002f
:1053cc00c2fc0000c9fc0000d1fc0000d8fc0000ad
:1053dc00dffc0000e6fc0000edfc0000f5fc00002a
:1053ec00fcfc000003fd00000bfd000012fd0000a2
:1053fc001afd000021fd000028fd000030fd00001a
:10540c0037fd00003ffd000046fd00004efd000092
:10541c0055fd00005dfd000065fd00006cfd000009
:10542c0074fd00007bfd000083fd00008bfd00007f
:10543c0092fd00009afd0000a2fd0000a9fd0000f5
:10544c00b1fd0000b9fd0000c1fd0000c8fd000069
:10545c00d0fd0000d8fd0000e0fd0000e8fd0000dc
:10546c00f0fd0000f8fd000000fe000008fe00004a
:10547c0010fe000018fe000020fe000029fe0000b7
:10548c0031fe000039fe000042fe00004afe000022
:10549c0052fe00005bfe000063fe00006cfe00008c
:1054ac0075fe00007dfe000086fe00008ffe0000f1
:1054bc0098fe0000a1fe0000aafe0000b3fe000052
:1054cc00bcfe0000c5fe0000cefe0000d8fe0000b1
:1054dc00e1fe0000eafe0000f4fe0000fdfe00000c
:1054ec0007ff000011ff00001aff000024ff00005e
:1054fc002eff000037ff000041ff00004bff0000b3
:10550c0055ff00005fff000069ff000073ff000003
:10551c007dff000087ff000091ff00009bff000053
:10552c00a6ff0000b0ff0000baff0000c4ff00009f
:10553c00ceff0000d9ff0000e3ff0000edff0000ec
:020000040000fa
:10554c000a00fa0040079800ce009000303320008b
:10555c0000017800110009008280d800000f78004b
:10556c00ce009000303320000001780011000900bb
:10557c008280d8008000fd00100798001e0090006b
:10558c000000d1008000eb0000004000818048004a
:10559c000280200002004000100078008000eb0028
:1055ac0020079800310798002e009000be00900054
:1055bc008100d1000080d30042782a000289b90012
:1055cc00020178006102b9008401780003014100f6
:1055dc0043782a000300b8000101410082007800e2
:1055ec002007980031079800200798003107980091
:1055fc002e009000be0090004109dd004f00de003f
:10560c0000007100cf08de002007980031079800d9
:10561c002e019000be01900040782a00110020005d
:10562c000200400083804800200798003107980052
:10563c001e0078008000eb000000400081804800d4
:10564c0042b3200002004000100078008000eb0004
:10565c003e0190000091b90002017800ae0190006b
:10566c00019ab9008401780003014100ae01900059
:10567c000018b80001014100820078002007980052
:10568c003107980020079800310798003e009000e1
:10569c006e00b900000178002e0090006000b90087
:1056ac000000780000014100ae009000e0002000f6
:1056bc000008b80001014100820078000080fa0067
:1056cc00000006000080fb00ef0060003115880030
:1056dc00110020000008dd000080ea004015880061
:1056ec00000e200000158800a222ef008080200010
:1056fc0020158800aa22ef00a1e2a800a022a80091
:10570c00a002ab00feff3200001480000000060077
:10571c0060c4b30042e7b7007140400042e7b700f5
:10572c004267ef0080c7b30043e7b700a0c9b300de
:10573c0043e7b70030c0b30043e7b70001022000d5
